{
  "address": "0xaaea97033dfe8aebdd9d4ae9d5856678b8f7e127",
  "abi": [
    {
      "inputs": [
        {
          "internalType": "address",
          "name": "_factory",
          "type": "address"
        },
        {
          "internalType": "address",
          "name": "_WETH9",
          "type": "address"
        },
        {
          "internalType": "address",
          "name": "_tokenDescriptor_",
          "type": "address"
        }
      ],
      "stateMutability": "nonpayable",
      "type": "constructor"
    },
    {
      "anonymous": false,
      "inputs": [
        {
          "indexed": true,
          "internalType": "address",
          "name": "owner",
          "type": "address"
        },
        {
          "indexed": true,
          "internalType": "address",
          "name": "approved",
          "type": "address"
        },
        {
          "indexed": true,
          "internalType": "uint256",
          "name": "tokenId",
          "type": "uint256"
        }
      ],
      "name": "Approval",
      "type": "event"
    },
    {
      "anonymous": false,
      "inputs": [
        {
          "indexed": true,
          "internalType": "address",
          "name": "owner",
          "type": "address"
        },
        {
          "indexed": true,
          "internalType": "address",
          "name": "operator",
          "type": "address"
        },
        {
          "indexed": false,
          "internalType": "bool",
          "name": "approved",
          "type": "bool"
        }
      ],
      "name": "ApprovalForAll",
      "type": "event"
    },
    {
      "anonymous": false,
      "inputs": [
        {
          "indexed": true,
          "internalType": "uint256",
          "name": "tokenId",
          "type": "uint256"
        },
        {
          "indexed": false,
          "internalType": "address",
          "name": "recipient",
          "type": "address"
        },
        {
          "indexed": false,
          "internalType": "uint256",
          "name": "amount0",
          "type": "uint256"
        },
        {
          "indexed": false,
          "internalType": "uint256",
          "name": "amount1",
          "type": "uint256"
        }
      ],
      "name": "Collect",
      "type": "event"
    },
    {
      "anonymous": false,
      "inputs": [
        {
          "indexed": true,
          "internalType": "uint256",
          "name": "tokenId",
          "type": "uint256"
        },
        {
          "indexed": false,
          "internalType": "uint128",
          "name": "liquidity",
          "type": "uint128"
        },
        {
          "indexed": false,
          "internalType": "uint256",
          "name": "amount0",
          "type": "uint256"
        },
        {
          "indexed": false,
          "internalType": "uint256",
          "name": "amount1",
          "type": "uint256"
        }
      ],
      "name": "DecreaseLiquidity",
      "type": "event"
    },
    {
      "anonymous": false,
      "inputs": [
        {
          "indexed": true,
          "internalType": "uint256",
          "name": "tokenId",
          "type": "uint256"
        },
        {
          "indexed": false,
          "internalType": "uint128",
          "name": "liquidity",
          "type": "uint128"
        },
        {
          "indexed": false,
          "internalType": "uint256",
          "name": "amount0",
          "type": "uint256"
        },
        {
          "indexed": false,
          "internalType": "uint256",
          "name": "amount1",
          "type": "uint256"
        }
      ],
      "name": "IncreaseLiquidity",
      "type": "event"
    },
    {
      "anonymous": false,
      "inputs": [
        {
          "indexed": true,
          "internalType": "address",
          "name": "from",
          "type": "address"
        },
        {
          "indexed": true,
          "internalType": "address",
          "name": "to",
          "type": "address"
        },
        {
          "indexed": true,
          "internalType": "uint256",
          "name": "tokenId",
          "type": "uint256"
        }
      ],
      "name": "Transfer",
      "type": "event"
    },
    {
      "inputs": [],
      "name": "DOMAIN_SEPARATOR",
      "outputs": [
        {
          "internalType": "bytes32",
          "name": "",
          "type": "bytes32"
        }
      ],
      "stateMutability": "view",
      "type": "function"
    },
    {
      "inputs": [],
      "name": "PERMIT_TYPEHASH",
      "outputs": [
        {
          "internalType": "bytes32",
          "name": "",
          "type": "bytes32"
        }
      ],
      "stateMutability": "view",
      "type": "function"
    },
    {
      "inputs": [],
      "name": "WETH9",
      "outputs": [
        {
          "internalType": "address",
          "name": "",
          "type": "address"
        }
      ],
      "stateMutability": "view",
      "type": "function"
    },
    {
      "inputs": [
        {
          "internalType": "address",
          "name": "to",
          "type": "address"
        },
        {
          "internalType": "uint256",
          "name": "tokenId",
          "type": "uint256"
        }
      ],
      "name": "approve",
      "outputs": [],
      "stateMutability": "nonpayable",
      "type": "function"
    },
    {
      "inputs": [
        {
          "internalType": "address",
          "name": "owner",
          "type": "address"
        }
      ],
      "name": "balanceOf",
      "outputs": [
        {
          "internalType": "uint256",
          "name": "",
          "type": "uint256"
        }
      ],
      "stateMutability": "view",
      "type": "function"
    },
    {
      "inputs": [],
      "name": "baseURI",
      "outputs": [
        {
          "internalType": "string",
          "name": "",
          "type": "string"
        }
      ],
      "stateMutability": "pure",
      "type": "function"
    },
    {
      "inputs": [
        {
          "internalType": "uint256",
          "name": "tokenId",
          "type": "uint256"
        }
      ],
      "name": "burn",
      "outputs": [],
      "stateMutability": "payable",
      "type": "function"
    },
    {
      "inputs": [
        {
          "components": [
            {
              "internalType": "uint256",
              "name": "tokenId",
              "type": "uint256"
            },
            {
              "internalType": "address",
              "name": "recipient",
              "type": "address"
            },
            {
              "internalType": "uint128",
              "name": "amount0Max",
              "type": "uint128"
            },
            {
              "internalType": "uint128",
              "name": "amount1Max",
              "type": "uint128"
            }
          ],
          "internalType": "struct INonfungiblePositionManager.CollectParams",
          "name": "params",
          "type": "tuple"
        }
      ],
      "name": "collect",
      "outputs": [
        {
          "internalType": "uint256",
          "name": "amount0",
          "type": "uint256"
        },
        {
          "internalType": "uint256",
          "name": "amount1",
          "type": "uint256"
        }
      ],
      "stateMutability": "payable",
      "type": "function"
    },
    {
      "inputs": [
        {
          "internalType": "address",
          "name": "token0",
          "type": "address"
        },
        {
          "internalType": "address",
          "name": "token1",
          "type": "address"
        },
        {
          "internalType": "uint24",
          "name": "fee",
          "type": "uint24"
        },
        {
          "internalType": "uint160",
          "name": "sqrtPriceX96",
          "type": "uint160"
        }
      ],
      "name": "createAndInitializePoolIfNecessary",
      "outputs": [
        {
          "internalType": "address",
          "name": "pool",
          "type": "address"
        }
      ],
      "stateMutability": "payable",
      "type": "function"
    },
    {
      "inputs": [
        {
          "components": [
            {
              "internalType": "uint256",
              "name": "tokenId",
              "type": "uint256"
            },
            {
              "internalType": "uint128",
              "name": "liquidity",
              "type": "uint128"
            },
            {
              "internalType": "uint256",
              "name": "amount0Min",
              "type": "uint256"
            },
            {
              "internalType": "uint256",
              "name": "amount1Min",
              "type": "uint256"
            },
            {
              "internalType": "uint256",
              "name": "deadline",
              "type": "uint256"
            }
          ],
          "internalType": "struct INonfungiblePositionManager.DecreaseLiquidityParams",
          "name": "params",
          "type": "tuple"
        }
      ],
      "name": "decreaseLiquidity",
      "outputs": [
        {
          "internalType": "uint256",
          "name": "amount0",
          "type": "uint256"
        },
        {
          "internalType": "uint256",
          "name": "amount1",
          "type": "uint256"
        }
      ],
      "stateMutability": "payable",
      "type": "function"
    },
    {
      "inputs": [],
      "name": "factory",
      "outputs": [
        {
          "internalType": "address",
          "name": "",
          "type": "address"
        }
      ],
      "stateMutability": "view",
      "type": "function"
    },
    {
      "inputs": [
        {
          "internalType": "uint256",
          "name": "tokenId",
          "type": "uint256"
        }
      ],
      "name": "getApproved",
      "outputs": [
        {
          "internalType": "address",
          "name": "",
          "type": "address"
        }
      ],
      "stateMutability": "view",
      "type": "function"
    },
    {
      "inputs": [
        {
          "components": [
            {
              "internalType": "uint256",
              "name": "tokenId",
              "type": "uint256"
            },
            {
              "internalType": "uint256",
              "name": "amount0Desired",
              "type": "uint256"
            },
            {
              "internalType": "uint256",
              "name": "amount1Desired",
              "type": "uint256"
            },
            {
              "internalType": "uint256",
              "name": "amount0Min",
              "type": "uint256"
            },
            {
              "internalType": "uint256",
              "name": "amount1Min",
              "type": "uint256"
            },
            {
              "internalType": "uint256",
              "name": "deadline",
              "type": "uint256"
            }
          ],
          "internalType": "struct INonfungiblePositionManager.IncreaseLiquidityParams",
          "name": "params",
          "type": "tuple"
        }
      ],
      "name": "increaseLiquidity",
      "outputs": [
        {
          "internalType": "uint128",
          "name": "liquidity",
          "type": "uint128"
        },
        {
          "internalType": "uint256",
          "name": "amount0",
          "type": "uint256"
        },
        {
          "internalType": "uint256",
          "name": "amount1",
          "type": "uint256"
        }
      ],
      "stateMutability": "payable",
      "type": "function"
    },
    {
      "inputs": [
        {
          "internalType": "address",
          "name": "owner",
          "type": "address"
        },
        {
          "internalType": "address",
          "name": "operator",
          "type": "address"
        }
      ],
      "name": "isApprovedForAll",
      "outputs": [
        {
          "internalType": "bool",
          "name": "",
          "type": "bool"
        }
      ],
      "stateMutability": "view",
      "type": "function"
    },
    {
      "inputs": [
        {
          "components": [
            {
              "internalType": "address",
              "name": "token0",
              "type": "address"
            },
            {
              "internalType": "address",
              "name": "token1",
              "type": "address"
            },
            {
              "internalType": "uint24",
              "name": "fee",
              "type": "uint24"
            },
            {
              "internalType": "int24",
              "name": "tickLower",
              "type": "int24"
            },
            {
              "internalType": "int24",
              "name": "tickUpper",
              "type": "int24"
            },
            {
              "internalType": "uint256",
              "name": "amount0Desired",
              "type": "uint256"
            },
            {
              "internalType": "uint256",
              "name": "amount1Desired",
              "type": "uint256"
            },
            {
              "internalType": "uint256",
              "name": "amount0Min",
              "type": "uint256"
            },
            {
              "internalType": "uint256",
              "name": "amount1Min",
              "type": "uint256"
            },
            {
              "internalType": "address",
              "name": "recipient",
              "type": "address"
            },
            {
              "internalType": "uint256",
              "name": "deadline",
              "type": "uint256"
            }
          ],
          "internalType": "struct INonfungiblePositionManager.MintParams",
          "name": "params",
          "type": "tuple"
        }
      ],
      "name": "mint",
      "outputs": [
        {
          "internalType": "uint256",
          "name": "tokenId",
          "type": "uint256"
        },
        {
          "internalType": "uint128",
          "name": "liquidity",
          "type": "uint128"
        },
        {
          "internalType": "uint256",
          "name": "amount0",
          "type": "uint256"
        },
        {
          "internalType": "uint256",
          "name": "amount1",
          "type": "uint256"
        }
      ],
      "stateMutability": "payable",
      "type": "function"
    },
    {
      "inputs": [
        {
          "internalType": "bytes[]",
          "name": "data",
          "type": "bytes[]"
        }
      ],
      "name": "multicall",
      "outputs": [
        {
          "internalType": "bytes[]",
          "name": "results",
          "type": "bytes[]"
        }
      ],
      "stateMutability": "payable",
      "type": "function"
    },
    {
      "inputs": [],
      "name": "name",
      "outputs": [
        {
          "internalType": "string",
          "name": "",
          "type": "string"
        }
      ],
      "stateMutability": "view",
      "type": "function"
    },
    {
      "inputs": [
        {
          "internalType": "uint256",
          "name": "tokenId",
          "type": "uint256"
        }
      ],
      "name": "ownerOf",
      "outputs": [
        {
          "internalType": "address",
          "name": "",
          "type": "address"
        }
      ],
      "stateMutability": "view",
      "type": "function"
    },
    {
      "inputs": [
        {
          "internalType": "address",
          "name": "spender",
          "type": "address"
        },
        {
          "internalType": "uint256",
          "name": "tokenId",
          "type": "uint256"
        },
        {
          "internalType": "uint256",
          "name": "deadline",
          "type": "uint256"
        },
        {
          "internalType": "uint8",
          "name": "v",
          "type": "uint8"
        },
        {
          "internalType": "bytes32",
          "name": "r",
          "type": "bytes32"
        },
        {
          "internalType": "bytes32",
          "name": "s",
          "type": "bytes32"
        }
      ],
      "name": "permit",
      "outputs": [],
      "stateMutability": "payable",
      "type": "function"
    },
    {
      "inputs": [
        {
          "internalType": "uint256",
          "name": "tokenId",
          "type": "uint256"
        }
      ],
      "name": "positions",
      "outputs": [
        {
          "internalType": "uint96",
          "name": "nonce",
          "type": "uint96"
        },
        {
          "internalType": "address",
          "name": "operator",
          "type": "address"
        },
        {
          "internalType": "address",
          "name": "token0",
          "type": "address"
        },
        {
          "internalType": "address",
          "name": "token1",
          "type": "address"
        },
        {
          "internalType": "uint24",
          "name": "fee",
          "type": "uint24"
        },
        {
          "internalType": "int24",
          "name": "tickLower",
          "type": "int24"
        },
        {
          "internalType": "int24",
          "name": "tickUpper",
          "type": "int24"
        },
        {
          "internalType": "uint128",
          "name": "liquidity",
          "type": "uint128"
        },
        {
          "internalType": "uint256",
          "name": "feeGrowthInside0LastX128",
          "type": "uint256"
        },
        {
          "internalType": "uint256",
          "name": "feeGrowthInside1LastX128",
          "type": "uint256"
        },
        {
          "internalType": "uint128",
          "name": "tokensOwed0",
          "type": "uint128"
        },
        {
          "internalType": "uint128",
          "name": "tokensOwed1",
          "type": "uint128"
        }
      ],
      "stateMutability": "view",
      "type": "function"
    },
    {
      "inputs": [],
      "name": "refundETH",
      "outputs": [],
      "stateMutability": "payable",
      "type": "function"
    },
    {
      "inputs": [
        {
          "internalType": "address",
          "name": "from",
          "type": "address"
        },
        {
          "internalType": "address",
          "name": "to",
          "type": "address"
        },
        {
          "internalType": "uint256",
          "name": "tokenId",
          "type": "uint256"
        }
      ],
      "name": "safeTransferFrom",
      "outputs": [],
      "stateMutability": "nonpayable",
      "type": "function"
    },
    {
      "inputs": [
        {
          "internalType": "address",
          "name": "from",
          "type": "address"
        },
        {
          "internalType": "address",
          "name": "to",
          "type": "address"
        },
        {
          "internalType": "uint256",
          "name": "tokenId",
          "type": "uint256"
        },
        {
          "internalType": "bytes",
          "name": "_data",
          "type": "bytes"
        }
      ],
      "name": "safeTransferFrom",
      "outputs": [],
      "stateMutability": "nonpayable",
      "type": "function"
    },
    {
      "inputs": [
        {
          "internalType": "address",
          "name": "token",
          "type": "address"
        },
        {
          "internalType": "uint256",
          "name": "value",
          "type": "uint256"
        },
        {
          "internalType": "uint256",
          "name": "deadline",
          "type": "uint256"
        },
        {
          "internalType": "uint8",
          "name": "v",
          "type": "uint8"
        },
        {
          "internalType": "bytes32",
          "name": "r",
          "type": "bytes32"
        },
        {
          "internalType": "bytes32",
          "name": "s",
          "type": "bytes32"
        }
      ],
      "name": "selfPermit",
      "outputs": [],
      "stateMutability": "payable",
      "type": "function"
    },
    {
      "inputs": [
        {
          "internalType": "address",
          "name": "token",
          "type": "address"
        },
        {
          "internalType": "uint256",
          "name": "nonce",
          "type": "uint256"
        },
        {
          "internalType": "uint256",
          "name": "expiry",
          "type": "uint256"
        },
        {
          "internalType": "uint8",
          "name": "v",
          "type": "uint8"
        },
        {
          "internalType": "bytes32",
          "name": "r",
          "type": "bytes32"
        },
        {
          "internalType": "bytes32",
          "name": "s",
          "type": "bytes32"
        }
      ],
      "name": "selfPermitAllowed",
      "outputs": [],
      "stateMutability": "payable",
      "type": "function"
    },
    {
      "inputs": [
        {
          "internalType": "address",
          "name": "token",
          "type": "address"
        },
        {
          "internalType": "uint256",
          "name": "nonce",
          "type": "uint256"
        },
        {
          "internalType": "uint256",
          "name": "expiry",
          "type": "uint256"
        },
        {
          "internalType": "uint8",
          "name": "v",
          "type": "uint8"
        },
        {
          "internalType": "bytes32",
          "name": "r",
          "type": "bytes32"
        },
        {
          "internalType": "bytes32",
          "name": "s",
          "type": "bytes32"
        }
      ],
      "name": "selfPermitAllowedIfNecessary",
      "outputs": [],
      "stateMutability": "payable",
      "type": "function"
    },
    {
      "inputs": [
        {
          "internalType": "address",
          "name": "token",
          "type": "address"
        },
        {
          "internalType": "uint256",
          "name": "value",
          "type": "uint256"
        },
        {
          "internalType": "uint256",
          "name": "deadline",
          "type": "uint256"
        },
        {
          "internalType": "uint8",
          "name": "v",
          "type": "uint8"
        },
        {
          "internalType": "bytes32",
          "name": "r",
          "type": "bytes32"
        },
        {
          "internalType": "bytes32",
          "name": "s",
          "type": "bytes32"
        }
      ],
      "name": "selfPermitIfNecessary",
      "outputs": [],
      "stateMutability": "payable",
      "type": "function"
    },
    {
      "inputs": [
        {
          "internalType": "address",
          "name": "operator",
          "type": "address"
        },
        {
          "internalType": "bool",
          "name": "approved",
          "type": "bool"
        }
      ],
      "name": "setApprovalForAll",
      "outputs": [],
      "stateMutability": "nonpayable",
      "type": "function"
    },
    {
      "inputs": [
        {
          "internalType": "bytes4",
          "name": "interfaceId",
          "type": "bytes4"
        }
      ],
      "name": "supportsInterface",
      "outputs": [
        {
          "internalType": "bool",
          "name": "",
          "type": "bool"
        }
      ],
      "stateMutability": "view",
      "type": "function"
    },
    {
      "inputs": [
        {
          "internalType": "address",
          "name": "token",
          "type": "address"
        },
        {
          "internalType": "uint256",
          "name": "amountMinimum",
          "type": "uint256"
        },
        {
          "internalType": "address",
          "name": "recipient",
          "type": "address"
        }
      ],
      "name": "sweepToken",
      "outputs": [],
      "stateMutability": "payable",
      "type": "function"
    },
    {
      "inputs": [],
      "name": "symbol",
      "outputs": [
        {
          "internalType": "string",
          "name": "",
          "type": "string"
        }
      ],
      "stateMutability": "view",
      "type": "function"
    },
    {
      "inputs": [
        {
          "internalType": "uint256",
          "name": "index",
          "type": "uint256"
        }
      ],
      "name": "tokenByIndex",
      "outputs": [
        {
          "internalType": "uint256",
          "name": "",
          "type": "uint256"
        }
      ],
      "stateMutability": "view",
      "type": "function"
    },
    {
      "inputs": [
        {
          "internalType": "address",
          "name": "owner",
          "type": "address"
        },
        {
          "internalType": "uint256",
          "name": "index",
          "type": "uint256"
        }
      ],
      "name": "tokenOfOwnerByIndex",
      "outputs": [
        {
          "internalType": "uint256",
          "name": "",
          "type": "uint256"
        }
      ],
      "stateMutability": "view",
      "type": "function"
    },
    {
      "inputs": [
        {
          "internalType": "uint256",
          "name": "tokenId",
          "type": "uint256"
        }
      ],
      "name": "tokenURI",
      "outputs": [
        {
          "internalType": "string",
          "name": "",
          "type": "string"
        }
      ],
      "stateMutability": "view",
      "type": "function"
    },
    {
      "inputs": [],
      "name": "totalSupply",
      "outputs": [
        {
          "internalType": "uint256",
          "name": "",
          "type": "uint256"
        }
      ],
      "stateMutability": "view",
      "type": "function"
    },
    {
      "inputs": [
        {
          "internalType": "address",
          "name": "from",
          "type": "address"
        },
        {
          "internalType": "address",
          "name": "to",
          "type": "address"
        },
        {
          "internalType": "uint256",
          "name": "tokenId",
          "type": "uint256"
        }
      ],
      "name": "transferFrom",
      "outputs": [],
      "stateMutability": "nonpayable",
      "type": "function"
    },
    {
      "inputs": [
        {
          "internalType": "uint256",
          "name": "amount0Owed",
          "type": "uint256"
        },
        {
          "internalType": "uint256",
          "name": "amount1Owed",
          "type": "uint256"
        },
        {
          "internalType": "bytes",
          "name": "data",
          "type": "bytes"
        }
      ],
      "name": "uniswapV3MintCallback",
      "outputs": [],
      "stateMutability": "nonpayable",
      "type": "function"
    },
    {
      "inputs": [
        {
          "internalType": "uint256",
          "name": "amountMinimum",
          "type": "uint256"
        },
        {
          "internalType": "address",
          "name": "recipient",
          "type": "address"
        }
      ],
      "name": "unwrapWETH9",
      "outputs": [],
      "stateMutability": "payable",
      "type": "function"
    },
    {
      "stateMutability": "payable",
      "type": "receive"
    }
  ],
  "transactionHash": "0x3a96f036eb1e64996e7aead2c3ef6a96d8ccfc4c366811f52b5a1b703406fab4",
  "args": [
    "0x3CA06Df0dA13841E03b6ee24d2aB62023De41b03",
    "0x2ED3dddae5B2F321AF0806181FBFA6D049Be47d8",
    "0x0b5c29aB9C422F369C6d932eeE2CfDac68366B83"
  ],
  "numDeployments": 1,
  "solcInputHash": "4c249873daf43f10f6e8e9ecdde40cd3",
  "bytecode": "0x610120604052600d80546001600160b01b0319166001176001600160b01b0316600160b01b1790553480156200003457600080fd5b50604051620063ce380380620063ce8339810160408190526200005791620002dd565b82826040518060400160405280601681526020017f765377617020506f736974696f6e73204e46542d5631000000000000000000008152506040518060400160405280600c81526020016b76537761702d4c502d504f5360a01b815250604051806040016040528060018152602001603160f81b8152508282620000e86301ffc9a760e01b6200018f60201b60201c565b8151620000fd90600690602085019062000214565b5080516200011390600790602084019062000214565b50620001266380ac58cd60e01b6200018f565b62000138635b5e139f60e01b6200018f565b6200014a63780e9d6360e01b6200018f565b50508251602093840120608052805192019190912060a052506001600160601b0319606092831b811660c05290821b811660e05291901b166101005250620003269050565b6001600160e01b03198082161415620001ef576040805162461bcd60e51b815260206004820152601c60248201527f4552433136353a20696e76616c696420696e7465726661636520696400000000604482015290519081900360640190fd5b6001600160e01b0319166000908152602081905260409020805460ff19166001179055565b828054600181600116156101000203166002900490600052602060002090601f0160209004810192826200024c576000855562000297565b82601f106200026757805160ff191683800117855562000297565b8280016001018555821562000297579182015b82811115620002975782518255916020019190600101906200027a565b50620002a5929150620002a9565b5090565b5b80821115620002a55760008155600101620002aa565b80516001600160a01b0381168114620002d857600080fd5b919050565b600080600060608486031215620002f2578283fd5b620002fd84620002c0565b92506200030d60208501620002c0565b91506200031d60408501620002c0565b90509250925092565b60805160a05160c05160601c60e05160601c6101005160601c616023620003ab60003980612b0a525080610299528061179f5280611895528061191d5280613f405280613f865280613ffa525080610ace5280610e055280610ecc5280612aa45280612baa5280612efa52806137c452508061155952508061153852506160236000f3fe6080604052600436106102895760003560e01c80636352211e11610153578063ac9650d8116100cb578063d34879971161007f578063e985e9c511610064578063e985e9c5146106f5578063f3995c6714610715578063fc6f7865146107285761030d565b8063d3487997146106c2578063df2ab5bb146106e25761030d565b8063c2e3140a116100b0578063c2e3140a1461067a578063c45a01551461068d578063c87b56dd146106a25761030d565b8063ac9650d81461063a578063b88d4fde1461065a5761030d565b8063883164561161012257806399fbab881161010757806399fbab88146105cf578063a22cb46514610607578063a4a78f0c146106275761030d565b8063883164561461059757806395d89b41146105ba5761030d565b80636352211e1461052f5780636c0360eb1461054f57806370a08231146105645780637ac2ff7b146105845761030d565b806323b872dd1161020157806342966c68116101b557806349404b7c1161019a57806349404b7c146104e75780634aa4a4fc146104fa5780634f6ccce71461050f5761030d565b806342966c68146104c15780634659a494146104d45761030d565b806330adf81f116101e657806330adf81f146104775780633644e5151461048c57806342842e0e146104a15761030d565b806323b872dd146104375780632f745c59146104575761030d565b80630c49ccbe1161025857806313ead5621161023d57806313ead562146103e057806318160ddd146103f3578063219f5d17146104155761030d565b80630c49ccbe146103b757806312210e8a146103d85761030d565b806301ffc9a71461031257806306fdde0314610348578063081812fc1461036a578063095ea7b3146103975761030d565b3661030d57336001600160a01b037f0000000000000000000000000000000000000000000000000000000000000000161461030b576040805162461bcd60e51b815260206004820152600960248201527f4e6f742057455448390000000000000000000000000000000000000000000000604482015290519081900360640190fd5b005b600080fd5b34801561031e57600080fd5b5061033261032d366004615489565b61073b565b60405161033f9190615a01565b60405180910390f35b34801561035457600080fd5b5061035d610776565b60405161033f9190615a54565b34801561037657600080fd5b5061038a61038536600461579b565b61080c565b60405161033f91906158c5565b3480156103a357600080fd5b5061030b6103b2366004615353565b610868565b6103ca6103c5366004615566565b61093e565b60405161033f929190615c25565b61030b610dd1565b61038a6103ee3660046151e6565b610de3565b3480156103ff57600080fd5b506104086110f0565b60405161033f9190615a0c565b610428610423366004615577565b611101565b60405161033f93929190615be0565b34801561044357600080fd5b5061030b61045236600461523f565b61146d565b34801561046357600080fd5b50610408610472366004615353565b6114c4565b34801561048357600080fd5b506104086114ef565b34801561049857600080fd5b50610408611513565b3480156104ad57600080fd5b5061030b6104bc36600461523f565b6115d1565b61030b6104cf36600461579b565b6115ec565b61030b6104e23660046153bf565b6116e8565b61030b6104f53660046157b3565b61179b565b34801561050657600080fd5b5061038a61191b565b34801561051b57600080fd5b5061040861052a36600461579b565b61193f565b34801561053b57600080fd5b5061038a61054a36600461579b565b611955565b34801561055b57600080fd5b5061035d61197d565b34801561057057600080fd5b5061040861057f366004615192565b611982565b61030b6105923660046153bf565b6119ea565b6105aa6105a5366004615633565b611e96565b60405161033f9493929190615c01565b3480156105c657600080fd5b5061035d6123f7565b3480156105db57600080fd5b506105ef6105ea36600461579b565b612458565b60405161033f9c9b9a99989796959493929190615c33565b34801561061357600080fd5b5061030b610622366004615326565b612687565b61030b6106353660046153bf565b6127aa565b61064d61064836600461541a565b61285c565b60405161033f9190615983565b34801561066657600080fd5b5061030b61067536600461527f565b61299c565b61030b6106883660046153bf565b6129fa565b34801561069957600080fd5b5061038a612aa2565b3480156106ae57600080fd5b5061035d6106bd36600461579b565b612ac6565b3480156106ce57600080fd5b5061030b6106dd3660046157fa565b612b95565b61030b6106f036600461537e565b612c13565b34801561070157600080fd5b506103326107103660046151ae565b612cf6565b61030b6107233660046153bf565b612d24565b6103ca61073636600461554f565b612daf565b7fffffffff00000000000000000000000000000000000000000000000000000000811660009081526020819052604090205460ff165b919050565b60068054604080516020601f60026000196101006001881615020190951694909404938401819004810282018101909252828152606093909290918301828280156108025780601f106107d757610100808354040283529160200191610802565b820191906000526020600020905b8154815290600101906020018083116107e557829003601f168201915b5050505050905090565b6000610817826132fc565b61083c5760405162461bcd60e51b815260040161083390615a9e565b60405180910390fd5b506000908152600c60205260409020546c0100000000000000000000000090046001600160a01b031690565b600061087382611955565b9050806001600160a01b0316836001600160a01b031614156108c65760405162461bcd60e51b8152600401808060200182810382526021815260200180615fc56021913960400191505060405180910390fd5b806001600160a01b03166108d8613309565b6001600160a01b031614806108f457506108f481610710613309565b61092f5760405162461bcd60e51b8152600401808060200182810382526038815260200180615eef6038913960400191505060405180910390fd5b610939838361330d565b505050565b600080823561094d33826133be565b6109695760405162461bcd60e51b815260040161083390615a67565b83608001358061097761345a565b11156109ca576040805162461bcd60e51b815260206004820152601360248201527f5472616e73616374696f6e20746f6f206f6c6400000000000000000000000000604482015290519081900360640190fd5b60006109dc6040870160208801615645565b6001600160801b0316116109ef57600080fd5b84356000908152600c60205260409020600181015469ffffffffffffffffffff16610a2c5760405162461bcd60e51b815260040161083390615b32565b6001810154600160801b90046001600160801b0316610a516040880160208901615645565b6001600160801b0316816001600160801b03161015610a6f57600080fd5b60018281015469ffffffffffffffffffff166000908152600b60209081526040808320815160608101835281546001600160a01b039081168252919095015490811692850192909252600160a01b90910462ffffff1690830152610af37f00000000000000000000000000000000000000000000000000000000000000008361345e565b60018501549091506001600160a01b0382169063a34123a7906a01000000000000000000008104600290810b91600160681b9004900b610b3960408e0160208f01615645565b6040518463ffffffff1660e01b8152600401610b5793929190615a2e565b6040805180830381600087803b158015610b7057600080fd5b505af1158015610b84573d6000803e3d6000fd5b505050506040513d601f19601f82011682018060405250810190610ba891906157d7565b909850965060408901358810801590610bc5575088606001358710155b610be15760405162461bcd60e51b815260040161083390615afb565b6001840154600090610c119030906a01000000000000000000008104600290810b91600160681b9004900b61355a565b9050600080836001600160a01b031663514ea4bf846040518263ffffffff1660e01b8152600401610c429190615a0c565b60a06040518083038186803b158015610c5a57600080fd5b505afa158015610c6e573d6000803e3d6000fd5b505050506040513d601f19601f82011682018060405250810190610c92919061568f565b50509250925050610cb787600201548303876001600160801b0316600160801b6135b4565b6004880180546fffffffffffffffffffffffffffffffff198116928e016001600160801b039182160181169290921790556003880154610d0191908303908816600160801b6135b4565b6004880180546001600160801b03808216938e01600160801b9283900482160116029190911790556002870182905560038701819055610d4760408d0160208e01615645565b86038760010160106101000a8154816001600160801b0302191690836001600160801b031602179055508b600001357f26f6a048ee9138f2c0ce266f322cb99228e8d619ae2bff30c67f8dcf9d2377b48d6020016020810190610daa9190615645565b8d8d604051610dbb93929190615be0565b60405180910390a2505050505050505050915091565b4715610de157610de13347613663565b565b6000836001600160a01b0316856001600160a01b031610610e0357600080fd5b7f00000000000000000000000000000000000000000000000000000000000000006001600160a01b0316631698ee828686866040518463ffffffff1660e01b815260040180846001600160a01b03168152602001836001600160a01b031681526020018262ffffff168152602001935050505060206040518083038186803b158015610e8e57600080fd5b505afa158015610ea2573d6000803e3d6000fd5b505050506040513d6020811015610eb857600080fd5b505190506001600160a01b038116611007577f00000000000000000000000000000000000000000000000000000000000000006001600160a01b031663a16712958686866040518463ffffffff1660e01b815260040180846001600160a01b03168152602001836001600160a01b031681526020018262ffffff1681526020019350505050602060405180830381600087803b158015610f5757600080fd5b505af1158015610f6b573d6000803e3d6000fd5b505050506040513d6020811015610f8157600080fd5b5051604080517ff637731d0000000000000000000000000000000000000000000000000000000081526001600160a01b03858116600483015291519293509083169163f637731d9160248082019260009290919082900301818387803b158015610fea57600080fd5b505af1158015610ffe573d6000803e3d6000fd5b505050506110e8565b6000816001600160a01b0316633850c7bd6040518163ffffffff1660e01b815260040160e06040518083038186803b15801561104257600080fd5b505afa158015611056573d6000803e3d6000fd5b505050506040513d60e081101561106c57600080fd5b505190506001600160a01b0381166110e657816001600160a01b031663f637731d846040518263ffffffff1660e01b815260040180826001600160a01b03168152602001915050600060405180830381600087803b1580156110cd57600080fd5b505af11580156110e1573d6000803e3d6000fd5b505050505b505b949350505050565b60006110fc600261376c565b905090565b60008060008360a001358061111461345a565b1115611167576040805162461bcd60e51b815260206004820152601360248201527f5472616e73616374696f6e20746f6f206f6c6400000000000000000000000000604482015290519081900360640190fd5b84356000908152600c60205260409020600181015469ffffffffffffffffffff166111a45760405162461bcd60e51b815260040161083390615b32565b60018082015469ffffffffffffffffffff81166000908152600b6020908152604080832081516060808201845282546001600160a01b039081168352929097015480831682860190815262ffffff600160a01b90920482168386019081528551610140810187528451861681529151909416818701529251168284015230828801526a01000000000000000000008604600290810b810b608080850191909152600160681b909704810b900b60a0830152928c013560c0820152908b013560e0820152938a013561010085015291890135610120840152909161128690613777565b6001870154939a50919850965091506000906112c09030906a01000000000000000000008104600290810b91600160681b9004900b61355a565b9050600080836001600160a01b031663514ea4bf846040518263ffffffff1660e01b81526004016112f19190615a0c565b60a06040518083038186803b15801561130957600080fd5b505afa15801561131d573d6000803e3d6000fd5b505050506040513d601f19601f82011682018060405250810190611341919061568f565b5050925092505061137d866002015483038760010160109054906101000a90046001600160801b03166001600160801b0316600160801b6135b4565b6004870180546001600160801b0380821690930183166fffffffffffffffffffffffffffffffff19909116179055600387015460018801546113cd9291840391600160801b9182900416906135b4565b6004870180546001600160801b03600160801b80830482169094018116840291811691909117909155600288018490556003880183905560018801805483810483168e018316909302929091169190911790556040518b35907f3067048beee31b25b2f1681f88dac838c8bba36af25bfb2b7cf7473a5847e35f90611457908d908d908d90615be0565b60405180910390a2505050505050509193909250565b61147e611478613309565b826133be565b6114b95760405162461bcd60e51b8152600401808060200182810382526031815260200180615fe66031913960400191505060405180910390fd5b6109398383836139b2565b6001600160a01b03821660009081526001602052604081206114e69083613afe565b90505b92915050565b7f49ecf333e5b8c95c40fdafc95c1ad136e8914a8fb55e9dc8bb01eaa83a2df9ad81565b60007f8b73c3c69bb8fe3d512ecc4cf759cc79239f7b179b0ffacaa9a75d522b39400f7f00000000000000000000000000000000000000000000000000000000000000007f0000000000000000000000000000000000000000000000000000000000000000611580613b0a565b3060405160200180868152602001858152602001848152602001838152602001826001600160a01b031681526020019550505050505060405160208183030381529060405280519060200120905090565b6109398383836040518060200160405280600081525061299c565b806115f733826133be565b6116135760405162461bcd60e51b815260040161083390615a67565b6000828152600c60205260409020600181015469ffffffffffffffffffff1661164e5760405162461bcd60e51b815260040161083390615b32565b6001810154600160801b90046001600160801b031615801561167b575060048101546001600160801b0316155b801561169957506004810154600160801b90046001600160801b0316155b6116b55760405162461bcd60e51b815260040161083390615b69565b6000838152600c602052604081208181556001810182905560028101829055600381018290556004015561093983613b0e565b604080517f8fcbaf0c00000000000000000000000000000000000000000000000000000000815233600482015230602482015260448101879052606481018690526001608482015260ff851660a482015260c4810184905260e4810183905290516001600160a01b03881691638fcbaf0c9161010480830192600092919082900301818387803b15801561177b57600080fd5b505af115801561178f573d6000803e3d6000fd5b50505050505050505050565b60007f00000000000000000000000000000000000000000000000000000000000000006001600160a01b03166370a08231306040518263ffffffff1660e01b815260040180826001600160a01b0316815260200191505060206040518083038186803b15801561180a57600080fd5b505afa15801561181e573d6000803e3d6000fd5b505050506040513d602081101561183457600080fd5b505190508281101561188d576040805162461bcd60e51b815260206004820152601260248201527f496e73756666696369656e742057455448390000000000000000000000000000604482015290519081900360640190fd5b8015610939577f00000000000000000000000000000000000000000000000000000000000000006001600160a01b0316632e1a7d4d826040518263ffffffff1660e01b815260040180828152602001915050600060405180830381600087803b1580156118f957600080fd5b505af115801561190d573d6000803e3d6000fd5b505050506109398282613663565b7f000000000000000000000000000000000000000000000000000000000000000081565b60008061194d600284613bdb565b509392505050565b60006114e982604051806060016040528060298152602001615f516029913960029190613bf9565b606090565b60006001600160a01b0382166119c95760405162461bcd60e51b815260040180806020018281038252602a815260200180615f27602a913960400191505060405180910390fd5b6001600160a01b03821660009081526001602052604090206114e99061376c565b836119f361345a565b1115611a46576040805162461bcd60e51b815260206004820152600e60248201527f5065726d69742065787069726564000000000000000000000000000000000000604482015290519081900360640190fd5b6000611a50611513565b7f49ecf333e5b8c95c40fdafc95c1ad136e8914a8fb55e9dc8bb01eaa83a2df9ad8888611a7c81613c06565b604080516020808201969096526001600160a01b03909416848201526060840192909252608083015260a08083018a90528151808403909101815260c0830182528051908401207f190100000000000000000000000000000000000000000000000000000000000060e084015260e283019490945261010280830194909452805180830390940184526101229091019052815191012090506000611b1f87611955565b9050806001600160a01b0316886001600160a01b03161415611b725760405162461bcd60e51b8152600401808060200182810382526027815260200180615e526027913960400191505060405180910390fd5b611b7b81613c45565b15611d56576040805160208082018790528183018690527fff0000000000000000000000000000000000000000000000000000000000000060f889901b16606083015282516041818403018152606183018085527f1626ba7e0000000000000000000000000000000000000000000000000000000090526065830186815260858401948552815160a585015281516001600160a01b03871695631626ba7e958995919260c59091019185019080838360005b83811015611c45578181015183820152602001611c2d565b50505050905090810190601f168015611c725780820380516001836020036101000a031916815260200191505b50935050505060206040518083038186803b158015611c9057600080fd5b505afa158015611ca4573d6000803e3d6000fd5b505050506040513d6020811015611cba57600080fd5b50517fffffffff00000000000000000000000000000000000000000000000000000000167f1626ba7e0000000000000000000000000000000000000000000000000000000014611d51576040805162461bcd60e51b815260206004820152600c60248201527f556e617574686f72697a65640000000000000000000000000000000000000000604482015290519081900360640190fd5b611e82565b600060018387878760405160008152602001604052604051808581526020018460ff1681526020018381526020018281526020019450505050506020604051602081039080840390855afa158015611db2573d6000803e3d6000fd5b5050604051601f1901519150506001600160a01b038116611e1a576040805162461bcd60e51b815260206004820152601160248201527f496e76616c6964207369676e6174757265000000000000000000000000000000604482015290519081900360640190fd5b816001600160a01b0316816001600160a01b031614611e80576040805162461bcd60e51b815260206004820152600c60248201527f556e617574686f72697a65640000000000000000000000000000000000000000604482015290519081900360640190fd5b505b611e8c888861330d565b5050505050505050565b60008060008084610140013580611eab61345a565b1115611efe576040805162461bcd60e51b815260206004820152601360248201527f5472616e73616374696f6e20746f6f206f6c6400000000000000000000000000604482015290519081900360640190fd5b604080516101408101909152600090611fca9080611f1f60208b018b615192565b6001600160a01b03168152602001896020016020810190611f409190615192565b6001600160a01b03168152602001611f5e60608b0160408c01615781565b62ffffff168152306020820152604001611f7e60808b0160608c016154c9565b60020b8152602001611f9660a08b0160808c016154c9565b60020b81526020018960a0013581526020018960c0013581526020018960e001358152602001896101000135815250613777565b9297509095509350905061203e611fe961014089016101208a01615192565b600d80547fffffffffffffffffffff000000000000000000000000000000000000000000008116600175ffffffffffffffffffffffffffffffffffffffffffff92831690810190921617909155975087613c4b565b60006120693061205460808b0160608c016154c9565b61206460a08c0160808d016154c9565b61355a565b9050600080836001600160a01b031663514ea4bf846040518263ffffffff1660e01b815260040161209a9190615a0c565b60a06040518083038186803b1580156120b257600080fd5b505afa1580156120c6573d6000803e3d6000fd5b505050506040513d601f19601f820116820180604052508101906120ea919061568f565b5050925092505060006121638560405180606001604052808e60000160208101906121159190615192565b6001600160a01b031681526020018e60200160208101906121369190615192565b6001600160a01b031681526020018e60400160208101906121579190615781565b62ffffff169052613d79565b905060405180610140016040528060006bffffffffffffffffffffffff16815260200160006001600160a01b031681526020018269ffffffffffffffffffff1681526020018c60600160208101906121bb91906154c9565b60020b81526020016121d360a08e0160808f016154c9565b60020b81526020018a6001600160801b0316815260200184815260200183815260200160006001600160801b0316815260200160006001600160801b0316815250600c60008c815260200190815260200160002060008201518160000160006101000a8154816bffffffffffffffffffffffff02191690836bffffffffffffffffffffffff160217905550602082015181600001600c6101000a8154816001600160a01b0302191690836001600160a01b0316021790555060408201518160010160006101000a81548169ffffffffffffffffffff021916908369ffffffffffffffffffff160217905550606082015181600101600a6101000a81548162ffffff021916908360020b62ffffff160217905550608082015181600101600d6101000a81548162ffffff021916908360020b62ffffff16021790555060a08201518160010160106101000a8154816001600160801b0302191690836001600160801b0316021790555060c0820151816002015560e082015181600301556101008201518160040160006101000a8154816001600160801b0302191690836001600160801b031602179055506101208201518160040160106101000a8154816001600160801b0302191690836001600160801b03160217905550905050897f3067048beee31b25b2f1681f88dac838c8bba36af25bfb2b7cf7473a5847e35f8a8a8a6040516123e293929190615be0565b60405180910390a25050505050509193509193565b60078054604080516020601f60026000196101006001881615020190951694909404938401819004810282018101909252828152606093909290918301828280156108025780601f106107d757610100808354040283529160200191610802565b6000818152600c6020908152604080832081516101408101835281546bffffffffffffffffffffffff811682526001600160a01b036c010000000000000000000000009091041693810193909352600181015469ffffffffffffffffffff81169284018390526a01000000000000000000008104600290810b810b810b6060860152600160681b8204810b810b810b60808601526001600160801b03600160801b92839004811660a08701529083015460c0860152600383015460e0860152600490920154808316610100860152041661012083015282918291829182918291829182918291829182918291906125615760405162461bcd60e51b815260040161083390615b32565b6000600b6000836040015169ffffffffffffffffffff1669ffffffffffffffffffff1681526020019081526020016000206040518060600160405290816000820160009054906101000a90046001600160a01b03166001600160a01b03166001600160a01b031681526020016001820160009054906101000a90046001600160a01b03166001600160a01b03166001600160a01b031681526020016001820160149054906101000a900462ffffff1662ffffff1662ffffff1681525050905081600001518260200151826000015183602001518460400151866060015187608001518860a001518960c001518a60e001518b61010001518c61012001519d509d509d509d509d509d509d509d509d509d509d509d50505091939597999b5091939597999b565b61268f613309565b6001600160a01b0316826001600160a01b031614156126f5576040805162461bcd60e51b815260206004820152601960248201527f4552433732313a20617070726f766520746f2063616c6c657200000000000000604482015290519081900360640190fd5b8060056000612702613309565b6001600160a01b0390811682526020808301939093526040918201600090812091871680825291909352912080547fffffffffffffffffffffffffffffffffffffffffffffffffffffffffffffff001692151592909217909155612764613309565b6001600160a01b03167f17307eab39ab6107e8899845ad3d59bd9653f200f220920489ca2b5937696c318360405180821515815260200191505060405180910390a35050565b604080517fdd62ed3e0000000000000000000000000000000000000000000000000000000081523360048201523060248201529051600019916001600160a01b0389169163dd62ed3e91604480820192602092909190829003018186803b15801561281457600080fd5b505afa158015612828573d6000803e3d6000fd5b505050506040513d602081101561283e57600080fd5b50511015612854576128548686868686866116e8565b505050505050565b60608167ffffffffffffffff8111801561287557600080fd5b506040519080825280602002602001820160405280156128a957816020015b60608152602001906001900390816128945790505b50905060005b8281101561299557600080308686858181106128c757fe5b90506020028101906128d99190615cd2565b6040516128e79291906158b5565b600060405180830381855af49150503d8060008114612922576040519150601f19603f3d011682016040523d82523d6000602084013e612927565b606091505b5091509150816129735760448151101561294057600080fd5b6004810190508080602001905181019061295a91906154e5565b60405162461bcd60e51b81526004016108339190615a54565b8084848151811061298057fe5b602090810291909101015250506001016128af565b5092915050565b6129ad6129a7613309565b836133be565b6129e85760405162461bcd60e51b8152600401808060200182810382526031815260200180615fe66031913960400191505060405180910390fd5b6129f484848484613ec9565b50505050565b604080517fdd62ed3e000000000000000000000000000000000000000000000000000000008152336004820152306024820152905186916001600160a01b0389169163dd62ed3e91604480820192602092909190829003018186803b158015612a6257600080fd5b505afa158015612a76573d6000803e3d6000fd5b505050506040513d6020811015612a8c57600080fd5b5051101561285457612854868686868686612d24565b7f000000000000000000000000000000000000000000000000000000000000000081565b6060612ad1826132fc565b612ada57600080fd5b6040517fe9dc63750000000000000000000000000000000000000000000000000000000081526001600160a01b037f0000000000000000000000000000000000000000000000000000000000000000169063e9dc637590612b419030908690600401615a15565b60006040518083038186803b158015612b5957600080fd5b505afa158015612b6d573d6000803e3d6000fd5b505050506040513d6000823e601f3d908101601f191682016040526114e991908101906154e5565b6000612ba382840184615588565b9050612bd37f00000000000000000000000000000000000000000000000000000000000000008260000151613f1b565b508415612bee578051516020820151612bee91903388613f3e565b8315612c0c57612c0c81600001516020015182602001513387613f3e565b5050505050565b6000836001600160a01b03166370a08231306040518263ffffffff1660e01b815260040180826001600160a01b0316815260200191505060206040518083038186803b158015612c6257600080fd5b505afa158015612c76573d6000803e3d6000fd5b505050506040513d6020811015612c8c57600080fd5b5051905082811015612ce5576040805162461bcd60e51b815260206004820152601260248201527f496e73756666696369656e7420746f6b656e0000000000000000000000000000604482015290519081900360640190fd5b80156129f4576129f48483836140ce565b6001600160a01b03918216600090815260056020908152604080832093909416825291909152205460ff1690565b604080517fd505accf000000000000000000000000000000000000000000000000000000008152336004820152306024820152604481018790526064810186905260ff8516608482015260a4810184905260c4810183905290516001600160a01b0388169163d505accf9160e480830192600092919082900301818387803b15801561177b57600080fd5b6000808235612dbe33826133be565b612dda5760405162461bcd60e51b815260040161083390615a67565b6000612dec6060860160408701615645565b6001600160801b03161180612e1957506000612e0e6080860160608701615645565b6001600160801b0316115b612e2257600080fd5b600080612e356040870160208801615192565b6001600160a01b031614612e5857612e536040860160208701615192565b612e5a565b305b85356000908152600c6020526040902060018101549192509069ffffffffffffffffffff16612e9b5760405162461bcd60e51b815260040161083390615b32565b60018181015469ffffffffffffffffffff166000908152600b60209081526040808320815160608101835281546001600160a01b039081168252919095015490811692850192909252600160a01b90910462ffffff1690830152612f1f7f00000000000000000000000000000000000000000000000000000000000000008361345e565b600484015460018501549192506001600160801b0380821692600160801b928390048216929004161561313c5760018501546040517fa34123a70000000000000000000000000000000000000000000000000000000081526001600160a01b0385169163a34123a791612fb6916a01000000000000000000008104600290810b92600160681b909204900b90600090600401615a2e565b6040805180830381600087803b158015612fcf57600080fd5b505af1158015612fe3573d6000803e3d6000fd5b505050506040513d601f19601f8201168201806040525081019061300791906157d7565b5050600185015460009081906001600160a01b0386169063514ea4bf9061304c9030906a01000000000000000000008104600290810b91600160681b9004900b61355a565b6040518263ffffffff1660e01b81526004016130689190615a0c565b60a06040518083038186803b15801561308057600080fd5b505afa158015613094573d6000803e3d6000fd5b505050506040513d601f19601f820116820180604052508101906130b8919061568f565b505092509250506130f4876002015483038860010160109054906101000a90046001600160801b03166001600160801b0316600160801b6135b4565b8401935061312d876003015482038860010160109054906101000a90046001600160801b03166001600160801b0316600160801b6135b4565b60028801929092556003870155015b6000806001600160801b03841661315960608e0160408f01615645565b6001600160801b03161161317c5761317760608d0160408e01615645565b61317e565b835b836001600160801b03168d606001602081019061319b9190615645565b6001600160801b0316116131be576131b960808e0160608f01615645565b6131c0565b835b60018901546040517f4f1eb3d80000000000000000000000000000000000000000000000000000000081529294509092506001600160a01b03871691634f1eb3d891613233918c916a01000000000000000000008104600290810b92600160681b909204900b908890889060040161591c565b6040805180830381600087803b15801561324c57600080fd5b505af1158015613260573d6000803e3d6000fd5b505050506040513d601f19601f820116820180604052508101906132849190615661565b6004890180546fffffffffffffffffffffffffffffffff196001600160801b03918216600160801b878a0384160217168689038216179091556040519281169d50169a508c35907f40d0efd1a53d60ecbf40971b9daf7dc90178c3aadc7aab1765632738fa8b8f0190610dbb908b9086908690615959565b60006114e960028361425e565b3390565b6000818152600c60205260409020600181015469ffffffffffffffffffff166133485760405162461bcd60e51b815260040161083390615b32565b80546bffffffffffffffffffffffff166c010000000000000000000000006001600160a01b038516908102919091178255829061338482611955565b6001600160a01b03167f8c5be1e5ebec7d5bd14f71427d1e84f3dd0314c0f7b2291e5b200ac8c7c3b92560405160405180910390a4505050565b60006133c9826132fc565b6134045760405162461bcd60e51b815260040180806020018281038252602c815260200180615ec3602c913960400191505060405180910390fd5b600061340f83611955565b9050806001600160a01b0316846001600160a01b0316148061344a5750836001600160a01b031661343f8461080c565b6001600160a01b0316145b806110e857506110e88185612cf6565b4290565b600081602001516001600160a01b031682600001516001600160a01b03161061348657600080fd5b50805160208083015160409384015184516001600160a01b0394851681850152939091168385015262ffffff166060808401919091528351808403820181526080840185528051908301207fff0000000000000000000000000000000000000000000000000000000000000060a085015294901b6bffffffffffffffffffffffff191660a183015260b58201939093527f21f9fbd4afc79e76492f571c11dd0bcb3b6b948b580e367c86487b679b037db460d5808301919091528251808303909101815260f5909101909152805191012090565b604080516bffffffffffffffffffffffff19606086901b16602080830191909152600285810b60e890811b60348501529085900b901b60378301528251601a818403018152603a90920190925280519101205b9392505050565b60008080600019858709868602925082811090839003039050806135ea57600084116135df57600080fd5b5082900490506135ad565b8084116135f657600080fd5b6000848688096000868103871696879004966002600389028118808a02820302808a02820302808a02820302808a02820302808a02820302808a02909103029181900381900460010186841190950394909402919094039290920491909117919091029150509392505050565b604080516000808252602082019092526001600160a01b0384169083906040518082805190602001908083835b602083106136af5780518252601f199092019160209182019101613690565b6001836020036101000a03801982511681845116808217855250505050505090500191505060006040518083038185875af1925050503d8060008114613711576040519150601f19603f3d011682016040523d82523d6000602084013e613716565b606091505b5050905080610939576040805162461bcd60e51b815260206004820152600360248201527f5354450000000000000000000000000000000000000000000000000000000000604482015290519081900360640190fd5b60006114e98261426a565b6000806000806000604051806060016040528087600001516001600160a01b0316815260200187602001516001600160a01b03168152602001876040015162ffffff1681525090506137e97f00000000000000000000000000000000000000000000000000000000000000008261345e565b91506000826001600160a01b0316633850c7bd6040518163ffffffff1660e01b815260040160e06040518083038186803b15801561382657600080fd5b505afa15801561383a573d6000803e3d6000fd5b505050506040513d601f19601f8201168201806040525081019061385e91906156f0565b50505050505090506000613875886080015161426e565b905060006138868960a0015161426e565b905061389d8383838c60c001518d60e001516145bc565b9750505050816001600160a01b0316633c8a7d8d876060015188608001518960a00151896040518060400160405280888152602001336001600160a01b03168152506040516020016138ef9190615ba0565b6040516020818303038152906040526040518663ffffffff1660e01b815260040161391e9594939291906158d9565b6040805180830381600087803b15801561393757600080fd5b505af115801561394b573d6000803e3d6000fd5b505050506040513d601f19601f8201168201806040525081019061396f91906157d7565b6101008801519195509350841080159061398e57508561012001518310155b6139aa5760405162461bcd60e51b815260040161083390615afb565b509193509193565b826001600160a01b03166139c582611955565b6001600160a01b031614613a0a5760405162461bcd60e51b8152600401808060200182810382526029815260200180615f9c6029913960400191505060405180910390fd5b6001600160a01b038216613a4f5760405162461bcd60e51b8152600401808060200182810382526024815260200180615e796024913960400191505060405180910390fd5b613a5a838383610939565b613a6560008261330d565b6001600160a01b0383166000908152600160205260409020613a879082614680565b506001600160a01b0382166000908152600160205260409020613aaa908261468c565b50613ab760028284614698565b5080826001600160a01b0316846001600160a01b03167fddf252ad1be2c89b69c2b068fc378daa952ba7f163c4a11628f55a4df523b3ef60405160405180910390a4505050565b60006114e683836146ae565b4690565b6000613b1982611955565b9050613b2781600084610939565b613b3260008361330d565b6000828152600860205260409020546002600019610100600184161502019091160415613b70576000828152600860205260408120613b7091615102565b6001600160a01b0381166000908152600160205260409020613b929083614680565b50613b9e600283614712565b5060405182906000906001600160a01b038416907fddf252ad1be2c89b69c2b068fc378daa952ba7f163c4a11628f55a4df523b3ef908390a45050565b6000808080613bea868661471e565b909450925050505b9250929050565b60006110e8848484614799565b6000908152600c6020526040902080546bffffffffffffffffffffffff19811660016bffffffffffffffffffffffff9283169081019092161790915590565b3b151590565b6001600160a01b038216613ca6576040805162461bcd60e51b815260206004820181905260248201527f4552433732313a206d696e7420746f20746865207a65726f2061646472657373604482015290519081900360640190fd5b613caf816132fc565b15613d01576040805162461bcd60e51b815260206004820152601c60248201527f4552433732313a20746f6b656e20616c7265616479206d696e74656400000000604482015290519081900360640190fd5b613d0d60008383610939565b6001600160a01b0382166000908152600160205260409020613d2f908261468c565b50613d3c60028284614698565b5060405181906001600160a01b038416906000907fddf252ad1be2c89b69c2b068fc378daa952ba7f163c4a11628f55a4df523b3ef908290a45050565b6001600160a01b0382166000908152600a602052604090205469ffffffffffffffffffff16806114e95750600d8054600169ffffffffffffffffffff76010000000000000000000000000000000000000000000080840482168381019092160275ffffffffffffffffffffffffffffffffffffffffffff909316929092179092556001600160a01b038085166000908152600a6020908152604080832080547fffffffffffffffffffffffffffffffffffffffffffff000000000000000000001686179055848352600b825291829020865181549085167fffffffffffffffffffffffff000000000000000000000000000000000000000091821617825591870151950180549287015162ffffff16600160a01b027fffffffffffffffffff000000ffffffffffffffffffffffffffffffffffffffff969094169290911691909117939093161790915592915050565b613ed48484846139b2565b613ee084848484614863565b6129f45760405162461bcd60e51b8152600401808060200182810382526032815260200180615e206032913960400191505060405180910390fd5b6000613f27838361345e565b9050336001600160a01b038216146114e957600080fd5b7f00000000000000000000000000000000000000000000000000000000000000006001600160a01b0316846001600160a01b0316148015613f7f5750804710155b156140a1577f00000000000000000000000000000000000000000000000000000000000000006001600160a01b031663d0e30db0826040518263ffffffff1660e01b81526004016000604051808303818588803b158015613fdf57600080fd5b505af1158015613ff3573d6000803e3d6000fd5b50505050507f00000000000000000000000000000000000000000000000000000000000000006001600160a01b031663a9059cbb83836040518363ffffffff1660e01b815260040180836001600160a01b0316815260200182815260200192505050602060405180830381600087803b15801561406f57600080fd5b505af1158015614083573d6000803e3d6000fd5b505050506040513d602081101561409957600080fd5b506129f49050565b6001600160a01b0383163014156140c2576140bd8483836140ce565b6129f4565b6129f484848484614a3f565b604080516001600160a01b038481166024830152604480830185905283518084039091018152606490920183526020820180517bffffffffffffffffffffffffffffffffffffffffffffffffffffffff167fa9059cbb000000000000000000000000000000000000000000000000000000001781529251825160009485949389169392918291908083835b602083106141785780518252601f199092019160209182019101614159565b6001836020036101000a0380198251168184511680821785525050505050509050019150506000604051808303816000865af19150503d80600081146141da576040519150601f19603f3d011682016040523d82523d6000602084013e6141df565b606091505b509150915081801561420d57508051158061420d575080806020019051602081101561420a57600080fd5b50515b612c0c576040805162461bcd60e51b815260206004820152600260248201527f5354000000000000000000000000000000000000000000000000000000000000604482015290519081900360640190fd5b60006114e68383614bd7565b5490565b60008060008360020b12614285578260020b61428d565b8260020b6000035b9050620d89e88111156142e7576040805162461bcd60e51b815260206004820152600160248201527f5400000000000000000000000000000000000000000000000000000000000000604482015290519081900360640190fd5b6000600182166142fb57600160801b61430d565b6ffffcb933bd6fad37aa2d162d1a5940015b70ffffffffffffffffffffffffffffffffff1690506002821615614341576ffff97272373d413259a46990580e213a0260801c5b6004821615614360576ffff2e50f5f656932ef12357cf3c7fdcc0260801c5b600882161561437f576fffe5caca7e10e4e61c3624eaa0941cd00260801c5b601082161561439e576fffcb9843d60f6159c9db58835c9266440260801c5b60208216156143bd576fff973b41fa98c081472e6896dfb254c00260801c5b60408216156143dc576fff2ea16466c96a3843ec78b326b528610260801c5b60808216156143fb576ffe5dee046a99a2a811c461f1969c30530260801c5b61010082161561441b576ffcbe86c7900a88aedcffc83b479aa3a40260801c5b61020082161561443b576ff987a7253ac413176f2b074cf7815e540260801c5b61040082161561445b576ff3392b0822b70005940c7a398e4b70f30260801c5b61080082161561447b576fe7159475a2c29b7443b29c7fa6e889d90260801c5b61100082161561449b576fd097f3bdfd2022b8845ad8f792aa58250260801c5b6120008216156144bb576fa9f746462d870fdf8a65dc1f90e061e50260801c5b6140008216156144db576f70d869a156d2a1b890bb3df62baf32f70260801c5b6180008216156144fb576f31be135f97d08fd981231505542fcfa60260801c5b6201000082161561451c576f09aa508b5b7a84e1c677de54f3e99bc90260801c5b6202000082161561453c576e5d6af8dedb81196699c329225ee6040260801c5b6204000082161561455b576d2216e584f5fa1ea926041bedfe980260801c5b62080000821615614578576b048a170391f7dc42444e8fa20260801c5b60008460020b131561459357806000198161458f57fe5b0490505b6401000000008106156145a75760016145aa565b60005b60ff16602082901c0192505050919050565b6000836001600160a01b0316856001600160a01b031611156145dc579293925b846001600160a01b0316866001600160a01b03161161460757614600858585614bef565b9050614677565b836001600160a01b0316866001600160a01b0316101561466957600061462e878686614bef565b9050600061463d878986614c5b565b9050806001600160801b0316826001600160801b03161061465e5780614660565b815b92505050614677565b614674858584614c5b565b90505b95945050505050565b60006114e68383614ca1565b60006114e68383614d67565b60006110e884846001600160a01b038516614db1565b815460009082106146f05760405162461bcd60e51b8152600401808060200182810382526022815260200180615dfe6022913960400191505060405180910390fd5b8260000182815481106146ff57fe5b9060005260206000200154905092915050565b60006114e68383614e48565b8154600090819083106147625760405162461bcd60e51b8152600401808060200182810382526022815260200180615f7a6022913960400191505060405180910390fd5b600084600001848154811061477357fe5b906000526020600020906002020190508060000154816001015492509250509250929050565b600082815260018401602052604081205482816148345760405162461bcd60e51b81526004018080602001828103825283818151815260200191508051906020019080838360005b838110156147f95781810151838201526020016147e1565b50505050905090810190601f1680156148265780820380516001836020036101000a031916815260200191505b509250505060405180910390fd5b5084600001600182038154811061484757fe5b9060005260206000209060020201600101549150509392505050565b6000614877846001600160a01b0316613c45565b614883575060016110e8565b60006149d47f150b7a02000000000000000000000000000000000000000000000000000000006148b1613309565b88878760405160240180856001600160a01b03168152602001846001600160a01b0316815260200183815260200180602001828103825283818151815260200191508051906020019080838360005b83811015614918578181015183820152602001614900565b50505050905090810190601f1680156149455780820380516001836020036101000a031916815260200191505b5095505050505050604051602081830303815290604052907bffffffffffffffffffffffffffffffffffffffffffffffffffffffff19166020820180517bffffffffffffffffffffffffffffffffffffffffffffffffffffffff8381831617835250505050604051806060016040528060328152602001615e20603291396001600160a01b0388169190614f1c565b905060008180602001905160208110156149ed57600080fd5b50517fffffffff00000000000000000000000000000000000000000000000000000000167f150b7a02000000000000000000000000000000000000000000000000000000001492505050949350505050565b604080516001600160a01b0385811660248301528481166044830152606480830185905283518084039091018152608490920183526020820180517bffffffffffffffffffffffffffffffffffffffffffffffffffffffff167f23b872dd00000000000000000000000000000000000000000000000000000000178152925182516000948594938a169392918291908083835b60208310614af15780518252601f199092019160209182019101614ad2565b6001836020036101000a0380198251168184511680821785525050505050509050019150506000604051808303816000865af19150503d8060008114614b53576040519150601f19603f3d011682016040523d82523d6000602084013e614b58565b606091505b5091509150818015614b86575080511580614b865750808060200190516020811015614b8357600080fd5b50515b612854576040805162461bcd60e51b815260206004820152600360248201527f5354460000000000000000000000000000000000000000000000000000000000604482015290519081900360640190fd5b60009081526001919091016020526040902054151590565b6000826001600160a01b0316846001600160a01b03161115614c0f579192915b6000614c3b856001600160a01b0316856001600160a01b03166c010000000000000000000000006135b4565b9050614677614c5684838888036001600160a01b03166135b4565b614f2b565b6000826001600160a01b0316846001600160a01b03161115614c7b579192915b6110e8614c56836c010000000000000000000000008787036001600160a01b03166135b4565b60008181526001830160205260408120548015614d5d5783546000198083019190810190600090879083908110614cd457fe5b9060005260206000200154905080876000018481548110614cf157fe5b600091825260208083209091019290925582815260018981019092526040902090840190558654879080614d2157fe5b600190038181906000526020600020016000905590558660010160008781526020019081526020016000206000905560019450505050506114e9565b60009150506114e9565b6000614d738383614bd7565b614da9575081546001818101845560008481526020808220909301849055845484825282860190935260409020919091556114e9565b5060006114e9565b600082815260018401602052604081205480614e165750506040805180820182528381526020808201848152865460018181018955600089815284812095516002909302909501918255915190820155865486845281880190925292909120556135ad565b82856000016001830381548110614e2957fe5b90600052602060002090600202016001018190555060009150506135ad565b60008181526001830160205260408120548015614d5d5783546000198083019190810190600090879083908110614e7b57fe5b9060005260206000209060020201905080876000018481548110614e9b57fe5b600091825260208083208454600290930201918255600193840154918401919091558354825289830190526040902090840190558654879080614eda57fe5b60008281526020808220600260001990940193840201828155600190810183905592909355888152898201909252604082209190915594506114e99350505050565b60606110e88484600085614f41565b806001600160801b038116811461077157600080fd5b606082471015614f825760405162461bcd60e51b8152600401808060200182810382526026815260200180615e9d6026913960400191505060405180910390fd5b614f8b85613c45565b614fdc576040805162461bcd60e51b815260206004820152601d60248201527f416464726573733a2063616c6c20746f206e6f6e2d636f6e7472616374000000604482015290519081900360640190fd5b600080866001600160a01b031685876040518082805190602001908083835b6020831061501a5780518252601f199092019160209182019101614ffb565b6001836020036101000a03801982511681845116808217855250505050505090500191505060006040518083038185875af1925050503d806000811461507c576040519150601f19603f3d011682016040523d82523d6000602084013e615081565b606091505b509150915061509182828661509c565b979650505050505050565b606083156150ab5750816135ad565b8251156150bb5782518084602001fd5b60405162461bcd60e51b81526020600482018181528451602484015284518593919283926044019190850190808383600083156147f95781810151838201526020016147e1565b50805460018160011615610100020316600290046000825580601f106151285750615146565b601f0160209004906000526020600020908101906151469190615149565b50565b5b8082111561515e576000815560010161514a565b5090565b803561077181615da7565b805161ffff8116811461077157600080fd5b803562ffffff8116811461077157600080fd5b6000602082840312156151a3578081fd5b81356135ad81615da7565b600080604083850312156151c0578081fd5b82356151cb81615da7565b915060208301356151db81615da7565b809150509250929050565b600080600080608085870312156151fb578182fd5b843561520681615da7565b9350602085013561521681615da7565b92506152246040860161517f565b9150606085013561523481615da7565b939692955090935050565b600080600060608486031215615253578081fd5b833561525e81615da7565b9250602084013561526e81615da7565b929592945050506040919091013590565b60008060008060808587031215615294578182fd5b843561529f81615da7565b935060208501356152af81615da7565b925060408501359150606085013567ffffffffffffffff8111156152d1578182fd5b8501601f810187136152e1578182fd5b80356152f46152ef82615d59565b615d35565b818152886020838501011115615308578384fd5b81602084016020830137908101602001929092525092959194509250565b60008060408385031215615338578182fd5b823561534381615da7565b915060208301356151db81615dbc565b60008060408385031215615365578182fd5b823561537081615da7565b946020939093013593505050565b600080600060608486031215615392578081fd5b833561539d81615da7565b92506020840135915060408401356153b481615da7565b809150509250925092565b60008060008060008060c087890312156153d7578384fd5b86356153e281615da7565b95506020870135945060408701359350606087013561540081615dee565b9598949750929560808101359460a0909101359350915050565b6000806020838503121561542c578182fd5b823567ffffffffffffffff80821115615443578384fd5b818501915085601f830112615456578384fd5b813581811115615464578485fd5b8660208083028501011115615477578485fd5b60209290920196919550909350505050565b60006020828403121561549a578081fd5b81357fffffffff00000000000000000000000000000000000000000000000000000000811681146135ad578182fd5b6000602082840312156154da578081fd5b81356135ad81615dca565b6000602082840312156154f6578081fd5b815167ffffffffffffffff81111561550c578182fd5b8201601f8101841361551c578182fd5b805161552a6152ef82615d59565b81815285602083850101111561553e578384fd5b614677826020830160208601615d7b565b600060808284031215615560578081fd5b50919050565b600060a08284031215615560578081fd5b600060c08284031215615560578081fd5b6000818303608081121561559a578182fd5b6040516040810167ffffffffffffffff82821081831117156155b857fe5b8160405260608412156155c9578485fd5b60a08301935081841081851117156155dd57fe5b5082604052843592506155ef83615da7565b91825260208401359161560183615da7565b8260608301526156136040860161517f565b6080830152815261562660608501615162565b6020820152949350505050565b60006101608284031215615560578081fd5b600060208284031215615656578081fd5b81356135ad81615dd9565b60008060408385031215615673578182fd5b825161567e81615dd9565b60208401519092506151db81615dd9565b600080600080600060a086880312156156a6578283fd5b85516156b181615dd9565b80955050602086015193506040860151925060608601516156d181615dd9565b60808701519092506156e281615dd9565b809150509295509295909350565b600080600080600080600060e0888a03121561570a578485fd5b875161571581615da7565b602089015190975061572681615dca565b95506157346040890161516d565b94506157426060890161516d565b93506157506080890161516d565b925060a088015161576081615dee565b60c089015190925061577181615dbc565b8091505092959891949750929550565b600060208284031215615792578081fd5b6114e68261517f565b6000602082840312156157ac578081fd5b5035919050565b600080604083850312156157c5578182fd5b8235915060208301356151db81615da7565b600080604083850312156157e9578182fd5b505080516020909101519092909150565b6000806000806060858703121561580f578182fd5b8435935060208501359250604085013567ffffffffffffffff80821115615834578384fd5b818701915087601f830112615847578384fd5b813581811115615855578485fd5b886020828501011115615866578485fd5b95989497505060200194505050565b6000815180845261588d816020860160208601615d7b565b601f01601f19169290920160200192915050565b60020b9052565b6001600160801b03169052565b6000828483379101908152919050565b6001600160a01b0391909116815260200190565b60006001600160a01b03871682528560020b60208301528460020b60408301526001600160801b038416606083015260a0608083015261509160a0830184615875565b6001600160a01b03959095168552600293840b60208601529190920b60408401526001600160801b03918216606084015216608082015260a00190565b6001600160a01b039390931683526001600160801b03918216602084015216604082015260600190565b6000602080830181845280855180835260408601915060408482028701019250838701855b828110156159f4577fffffffffffffffffffffffffffffffffffffffffffffffffffffffffffffffc08886030184526159e2858351615875565b945092850192908501906001016159a8565b5092979650505050505050565b901515815260200190565b90815260200190565b6001600160a01b03929092168252602082015260400190565b600293840b81529190920b60208201526001600160801b03909116604082015260600190565b6000602082526114e66020830184615875565b6020808252600c908201527f4e6f7420617070726f7665640000000000000000000000000000000000000000604082015260600190565b6020808252602c908201527f4552433732313a20617070726f76656420717565727920666f72206e6f6e657860408201527f697374656e7420746f6b656e0000000000000000000000000000000000000000606082015260800190565b60208082526014908201527f507269636520736c69707061676520636865636b000000000000000000000000604082015260600190565b60208082526010908201527f496e76616c696420746f6b656e20494400000000000000000000000000000000604082015260600190565b6020808252600b908201527f4e6f7420636c6561726564000000000000000000000000000000000000000000604082015260600190565b815180516001600160a01b03908116835260208083015182168185015260409283015162ffffff1692840192909252920151909116606082015260800190565b6001600160801b039390931683526020830191909152604082015260600190565b9384526001600160801b039290921660208401526040830152606082015260800190565b918252602082015260400190565b6bffffffffffffffffffffffff8d1681526001600160a01b038c811660208301528b811660408301528a16606082015262ffffff89166080820152600288900b60a08201526101808101615c8a60c08301896158a1565b615c9760e08301886158a8565b8561010083015284610120830152615cb36101408301856158a8565b615cc16101608301846158a8565b9d9c50505050505050505050505050565b60008083357fffffffffffffffffffffffffffffffffffffffffffffffffffffffffffffffe1843603018112615d06578283fd5b83018035915067ffffffffffffffff821115615d20578283fd5b602001915036819003821315613bf257600080fd5b60405181810167ffffffffffffffff81118282101715615d5157fe5b604052919050565b600067ffffffffffffffff821115615d6d57fe5b50601f01601f191660200190565b60005b83811015615d96578181015183820152602001615d7e565b838111156129f45750506000910152565b6001600160a01b038116811461514657600080fd5b801515811461514657600080fd5b8060020b811461514657600080fd5b6001600160801b038116811461514657600080fd5b60ff8116811461514657600080fdfe456e756d657261626c655365743a20696e646578206f7574206f6620626f756e64734552433732313a207472616e7366657220746f206e6f6e20455243373231526563656976657220696d706c656d656e7465724552433732315065726d69743a20617070726f76616c20746f2063757272656e74206f776e65724552433732313a207472616e7366657220746f20746865207a65726f2061646472657373416464726573733a20696e73756666696369656e742062616c616e636520666f722063616c6c4552433732313a206f70657261746f7220717565727920666f72206e6f6e6578697374656e7420746f6b656e4552433732313a20617070726f76652063616c6c6572206973206e6f74206f776e6572206e6f7220617070726f76656420666f7220616c6c4552433732313a2062616c616e636520717565727920666f7220746865207a65726f20616464726573734552433732313a206f776e657220717565727920666f72206e6f6e6578697374656e7420746f6b656e456e756d657261626c654d61703a20696e646578206f7574206f6620626f756e64734552433732313a207472616e73666572206f6620746f6b656e2074686174206973206e6f74206f776e4552433732313a20617070726f76616c20746f2063757272656e74206f776e65724552433732313a207472616e736665722063616c6c6572206973206e6f74206f776e6572206e6f7220617070726f766564a164736f6c6343000706000a"
}